:020000040800F2
:1000000000100020D11A00086105000863050008EF
:1000100000000000000000000000000000000000E0
:10002000000000000000000000000000650500085E
:1000300000000000000000006705000869050008D6
:10004000211B000800000000211B0008211B0008E4
:10005000211B0008211B0008211B0008211B000890
:1000600000000000211B0008211B0008211B0008C4
:10007000211B0008211B0008211B000800000000B4
:10008000211B00080000000000000000211B0008E8
:1000900000000000211B0008211B0008211B000894
:1000A00000000000211B000800000000211B0008C8
:1000B0000000000000000000000000000000000040
:1000C000002243088B4274D303098B425FD3030A97
:1000D0008B4244D3030B8B4228D3030C8B420DD3AA
:1000E000FF22090212BA030C8B4202D31212090238
:1000F00065D0030B8B4219D300E0090AC30B8B4276
:1001000001D3CB03C01A5241830B8B4201D38B0323
:10011000C01A5241430B8B4201D34B03C01A5241C8
:10012000030B8B4201D30B03C01A5241C30A8B420B
:1001300001D3CB02C01A5241830A8B4201D38B02F6
:10014000C01A5241430A8B4201D34B02C01A52419A
:10015000030A8B4201D30B02C01A5241CDD2C3090C
:100160008B4201D3CB01C01A524183098B4201D388
:100170008B01C01A524143098B4201D34B01C01A73
:10018000524103098B4201D30B01C01A5241C308EB
:100190008B4201D3CB00C01A524183088B4201D35A
:1001A0008B00C01A524143088B4201D34B00C01A46
:1001B0005241411A00D20146524110467047FFE7B2
:1001C00001B5002000F006F802BDC0460029F7D0B6
:1001D00076E770477047C0460448054B10B5834228
:1001E00003D0044B002B00D0984710BD0C0000201A
:1001F0000C0000200000000006480749091A8B1077
:10020000C90FC91810B5491003D0044B002B00D0FA
:10021000984710BD0C0000200C00002000000000DA
:1002200010B5074C2378002B09D1FFF7D5FF054BFC
:10023000002B02D0044800E000BF0123237010BD52
:100240000C000020000000007C1B0008054B10B5CE
:10025000002B03D00449054800E000BFFFF7CCFFA6
:1002600010BDC04600000000100000207C1B0008EC
:10027000F0B5C64600B588B01422002103A801F0ED
:1002800050FC2E4B5A698021C9030A435A615A69AE
:100290000A400092009A5A69802189020A435A61F1
:1002A0005A690A400192019A5A698021C9020A4397
:1002B0005A615B690B400293029B214B98460022D6
:1002C0000321180001F030F99026F60500221021D4
:1002D000300001F029F91B4F00220221380001F003
:1002E00023F9032303930125049500240594069420
:1002F00003A9404601F054F802239846039388234B
:100300005B030493059403A9300001F049F810231E
:10031000039304950594069403A9300001F040F876
:100320004346039304950594069403A9380001F00D
:1003300037F808B080BCB846F0BDC0460010024097
:10034000001400480004004872B6FEE700B585B00E
:100350000C22002101A801F0E4FB1748174B0360B1
:10036000002343608360C360012202610421416174
:10037000037643768376C376C221FF31C16103627F
:100380009E39FF394354826200F0D4F900280FD11E
:100390000023019380235B01029380235B05039379
:1003A000054801A900F088FA002803D105B000BD76
:1003B000FFF7CAFFFFF7C8FF280000200024014014
:1003C00010B51248124B0360124B43600023836048
:1003D0000122C260036143618361C361036200F073
:1003E00023FF00280CD10948002100F083FF0028DA
:1003F00008D10648002100F0A9FF002804D110BD53
:10040000FFF7A2FFFFF7A0FFFFF79EFF68000020A5
:10041000005400405D3E302010B51048104B036082
:1004200082235B00436000238360C0229200C2608D
:1004300003614361013AFF3A8261F93AFF3AC261CE
:100440000362436283620721C1620363426301F076
:10045000C5F8002800D110BDFFF776FFB4000020DA
:100460000030014010B50B480B4B036096231B0274
:10047000436000238360C36003610C224261836197
:10048000C3610362436201F0EBFA002800D110BDA2
:10049000FFF75AFF180100200038014010B594B052
:1004A0003022002108A801F03CFB1024102200217A
:1004B00004A801F036FB10220021684601F031FB50
:1004C00012230893113B0B930D930C940E9401335C
:1004D0001093A0239B03129308A800F07DFA002834
:1004E00019D107230493053B059300230693079333
:1004F000012104A800F0FCFC00280ED12123009368
:100500000023029310330393684600F0A1FD0028F6
:1005100005D114B010BDFFF717FFFFF715FFFFF768
:1005200013FF000010B500F04BFEFFF7B7FFFFF719
:100530009FFEFFF70BFFFFF743FFFFF76DFFFFF78E
:1005400091FF064C0221200000F0F4FFC82000F0CB
:1005500059FE0121200000F0EDFFF2E700140048F1
:10056000FEE7FEE77047704710B500F039FE10BD9A
:1005700082B00A4B996901221143996199690A4035
:100580000092009ADA69802149050A43DA61DB6941
:100590000B400193019B02B07047C046001002401F
:1005A00010B588B004001422002103A801F0B9FAA4
:1005B0002268114B9A4201D008B010BD0F4B9A69C6
:1005C000802189000A439A619A690A400192019A3E
:1005D0005A69802189020A435A615B690B40029380
:1005E000029B0123039302330493902003A9C005C7
:1005F00000F0D6FEE0E7C0460024014000100240B3
:1006000010B588B004001422002103A801F089FA73
:100610002268134B9A4201D008B010BD114C636997
:100620008022920213436361636913400193019B2B
:10063000C023DB000393122304930F3B0693013383
:100640000793902003A9C00500F0AAFEE369802269
:1006500092031343E361E36913400293029BDBE7D8
:10066000005400400010024010B588B0040014226D
:10067000002103A801F055FA2268124B9A4201D0DA
:1006800008B010BD104B9A69802149010A439A6154
:100690009A690A400192019A5A69802189020A43A3
:1006A0005A615B690B400293029BE0230393DE3B9C
:1006B000049301330693902003A9C00500F070FE57
:1006C000DEE7C046003001400010024010B588B09F
:1006D00004001422002103A801F023FA2268134B1E
:1006E0009A4201D008B010BD114B9A698021C9010E
:1006F0000A439A619A690A400192019A5A698021D3
:1007000089020A435A615B690B400293029B0C23E6
:1007100003930A3B049301330693023B0793902013
:1007200003A9C00500F03CFEDCE7C04600380140EC
:100730000010024070B5041E00D1B4E0836B002BA2
:1007400000D180E0A36BDB0600D5A6E023689A68A1
:10075000042108001040114200D09EE0A26B5349D2
:100760000A400631FF310A43A263996803220A4016
:10077000012A6ED0DA6818218A43A1680A43DA6038
:10078000226813699B009B0861680B431361226810
:10079000D36847490B40D360237E9B03627ED2031C
:1007A0001343A17E4A031343A26A012A58D0802230
:1007B00052011343E26813432269022A52D00343D1
:1007C0002422A25C52001343E27E012A4CD0E2694B
:1007D000C221FF318A4202D0216A0A4313432168B1
:1007E000CA681A43CA60E26A802149058A420DD06C
:1007F000012A0BD0022A09D0032A07D0042A05D0E7
:10080000052A03D0062A01D0072A0AD120684169A7
:1008100007229143416120684169E56A2A400A4301
:1008200042612268D26823490A409A422BD0A36BC6
:1008300012229343023A1343A363E36B0F3A134329
:10084000E36301202EE0C36334228354FFF7A8FE44
:1008500078E71A68D2079AD4DA68120497D489E73D
:100860000200A6E70420AAE7002903D18022520251
:100870001343ACE7A26B20210A43A263E26B1F394A
:100880000A43E263A3E70023E363A36B03229343DA
:10089000023A1343A363002004E0A36B1022134326
:1008A000A363012070BD0120FCE7C046FDFEFFFFF1
:1008B0001902FEFFE7FF3F8330B583B00400002339
:1008C00001933433C35C012B00D176E03423012241
:1008D000C254026893685B0765D44868384B9842F5
:1008E00048D0936A0D680120A84003439362E36AED
:1008F00080225205934213D0013B062B10D9886801
:100900002268556907232B40984209D05069072374
:1009100098435061206842698D682B4013434361BE
:100920000B681A00103A012A01D9002040E0254A3C
:100930001268102B09D08023DB031343214A136074
:100940000B68102B04D0002032E080231B04F4E756
:100950001D4B18681D49FFF7B3FB83001B185B0094
:10096000019302E0019B013B0193019B002BF9D114
:1009700000201DE0936A0D680120A8408343936224
:100980000B681A00103A012A01D9002010E00D4A24
:100990001268102B05D00E4B13400A4A136000203A
:1009A00006E00C4BF8E7836B20221343836301209E
:1009B00034230022E25403B030BD0220FBE7C046DE
:1009C00001100000082701400800002040420F00ED
:1009D000FFFFBFFFFFFF7FFF70B582B0041E00D195
:1009E0002EE20368DB0726D5AE4B5A680C23134072
:1009F000042B18D0AB4B5A680C231340082B0ED095
:100A00006368012B3CD0002B51D1A64B1A68A64934
:100A10000A401A601A68A5490A401A6036E0A14BDC
:100A20005B68DB03ECD59F4B1B689B0303D56368B6
:100A3000002B00D107E223689B0772D5994B5B68B6
:100A40000C221A425DD0974B5A680C231340082B96
:100A500053D0E368002B00D185E0924A136801214E
:100A60000B43136000F0C8FB05008E4B1B689B070F
:100A700070D400F0C1FB401B0228F6D90320E0E14E
:100A8000884A116880235B020B4313606368002B64
:100A900025D000F0B1FB0500824B1B689B03CAD434
:100AA00000F0AAFB401B6428F6D90320C9E1052BFE
:100AB00009D07C4B1A687C490A401A601A687B4945
:100AC0000A401A60E2E7774B19688022D2020A4393
:100AD0001A601968802252020A431A60D6E700F0B1
:100AE0008BFB05006F4B1B689B03A4D500F084FBB8
:100AF000401B6428F6D90320A3E16A4B5B68DB0343
:100B0000A7D4684B1B689B0703D5E368012B00D073
:100B10009BE164490B68F82293432269D200134396
:100B20000B6023681B0744D5E369002B2ED05D4A78
:100B3000536A01210B43536200F05EFB0500594BE1
:100B40005B6A9B0735D400F057FB401B0228F6D99F
:100B5000032076E153490B68F82293432269D200BF
:100B600013430B60DDE74F4A136801218B43136089
:100B700000F042FB05004B4B1B689B07D1D500F0F2
:100B80003BFB401B0228F6D903205AE1454A536A31
:100B900001218B43536200F02FFB0500414B5B6A40
:100BA0009B0706D500F028FB401B0228F6D903203E
:100BB00047E123685B0700D480E03A4BDB69DB0048
:100BC0001DD4384BDA69802149050A43DA61DB69B3
:100BD0000B400193019B0125354B1B68DB0510D5AC
:100BE000A368012B21D0002B36D12E4B1A6A01218C
:100BF0008A431A621A6A03318A431A621AE000258C
:100C0000EAE72B4A116880235B000B43136000F076
:100C1000F3FA0600264B1B68DB05E1D400F0ECFA82
:100C2000801B6428F6D903200BE11E4A136A0121B8
:100C30000B431362A368002B24D000F0DDFA0600FA
:100C4000184B1B6A9B0737D400F0D6FA801B194B50
:100C50009842F5D90320F4E0052B09D0114B1A6A0C
:100C600001218A431A621A6A03318A431A62E1E750
:100C70000C4B1A6A04210A431A621A6A03390A439E
:100C80001A62D7E700F0B8FA0600064B1B6A9B070A
:100C900012D500F0B1FA801B064B9842F5D903201B
:100CA000CFE0C04600100240FFFFFEFFFFFFFBFF4A
:100CB0000070004088130000012D33D02368DB064C
:100CC00010D56369012B33D0053351D1654A536B7D
:100CD00004218B435363536BF4318B43A169C900E7
:100CE0000B435363236A002B00D1B0E05D4A516887
:100CF0000C220A40082A00D18AE0022B4FD0594A20
:100D0000136859490B40136000F076FA0400554B04
:100D10001B689B017AD500F06FFA001B0228F6D9F8
:100D200003208EE04F4AD36950490B40D361C5E799
:100D30004C4B5A6B04210A435A635A6B03390A43DA
:100D40005A6300F059FA0500464B5B6B9B0706D4CB
:100D500000F052FA401B0228F6D9032071E0414905
:100D60004B6BF8229343A269D20013434B63B9E75C
:100D70003C4B5A6B04210A435A635A6B03398A432A
:100D80005A6300F039FA0500364B5B6B9B07A9D517
:100D900000F032FA401B0228F6D9032051E0314A14
:100DA000136831490B40136000F026FA05002D4B03
:100DB0001B689B0106D500F01FFA401B0228F6D9DC
:100DC00003203EE0274BDA6A0F218A43E16A0A4397
:100DD000DA625A6826490A40A16A606A01430A43F6
:100DE0005A601968802252040A431A6000F004FA1B
:100DF00004001C4B1B689B0106D400F0FDF9001B8E
:100E00000228F6D903201CE000201AE0002018E098
:100E1000012B1ED0134B5A68D86A80235B02134003
:100E2000616A8B4217D10F230340E16A8B4214D1D0
:100E3000F0239B031A40A36A9A4210D1002000E0DD
:100E4000012002B070BD0120FBE70120F9E700207E
:100E5000F7E70120F5E70120F3E70120F1E70120A2
:100E6000EFE7C04600100240FFFFFFFEFFFFFFEF6D
:100E7000FFFFC2FF30B589B004AA184B31CB31C295
:100E80001B6813606A46164B31CB31C21B68136076
:100E9000144B5A680C231340042B1AD0082B1AD178
:100EA000910C0733194004A8445C0E49C96A0B40F1
:100EB0006946C95CD20304D50B48FFF701F96043CA
:100EC0000AE06201121B93019B1ADB001B19180236
:100ED00002E0054800E0054809B030BD941B000859
:100EE000A81B000800100240001BB70000127A0087
:100EF00070B504000D00002800D17EE0434B1A6855
:100F0000012313408B420AD240490B6801229343CC
:100F10002B430B600B681A40AA4200D06FE0236895
:100F20009A070ED55B0705D5394A5168E023DB00E7
:100F30000B435360364A5368F0218B43A1680B433F
:100F400053602368DB072DD56368012B1ED0022B6D
:100F500022D02F4A1268920753D52D494A680320A0
:100F6000824313434B6000F047F90600284B5B684F
:100F70000C221A4063689B009A4213D000F03CF99F
:100F8000801B244B9842F1D9032035E0204A126897
:100F90009203E2D401202FE01D4A12689201DCD4B2
:100FA000012029E0194B1A6801231340AB4209D9EB
:100FB00016490B68012293432B430B600B681A40C0
:100FC000AA4220D123685B0706D5114A536812490B
:100FD0000B40E1680B435360FFF74CFF0C4B5A6822
:100FE00012090F2313400D4AD35CD8400C4B1860F4
:100FF000032000F0BDF8002070BD0120FCE70120B7
:10100000FAE70120F8E70120F6E7C0460020024099
:101010000010024088130000FFF8FFFFBC1B00080F
:1010200008000020014B18687047C04608000020E7
:1010300010B5FFF7F7FF044B5A68120A0723134055
:10104000024AD35CD84010BD00100240CC1B0008FF
:1010500070B582B004000368DB0339D53E4BDB6911
:10106000DB004BD43C4BDA69802149050A43DA6145
:10107000DB690B400193019B0125384B1B68DB05A5
:101080003ED5354B1A6AC0239B00110019401A4205
:1010900015D06368C022920013408B420FD02E4BB4
:1010A0001A6A2F4911401E6A80204002304318629C
:1010B000186A2C4E304018621962D20734D4264A7E
:1010C000136A27490B4061680B431362012D3AD024
:1010D0002368DB0706D5204A136B03218B43A168E5
:1010E0000B43136323689B0632D51B4A136B1021F5
:1010F0008B43E1680B43136300202AE00025BCE723
:10110000164A116880235B000B43136000F074F8EB
:101110000600124B1B68DB05B3D400F06DF8801B92
:101120006428F6D9032014E000F066F806000A4BA4
:101130001B6A9B07C3D400F05FF8801B0A4B9842E0
:10114000F5D9032005E0D36908490B40D361BFE717
:10115000002002B070BDC046001002400070004088
:10116000FFFCFFFFFFFFFEFF88130000FFFFFFEF04
:1011700010B504000F4B1978FA208000FEF7A0FF8D
:1011800001000D4B1868FEF79BFF00F00BFA0028DA
:101190000DD1032C01D901200AE0013000222100E9
:1011A000404200F0CFF9054B1C60002000E0012018
:1011B00010BDC046000000200800002004000020F0
:1011C00010B5064A136810210B4313600320FFF784
:1011D000CFFFFFF7CDF9002010BDC0460020024030
:1011E000034A1168034B1B785B1813607047C046B5
:1011F0009C01002000000020014B18687047C04689
:101200009C01002070B50400FFF7F6FF0500631C89
:1012100002D0044B1B78E418FFF7EEFF401BA042FE
:10122000FAD370BD0000002010B5041E59D0412330
:10123000C35C002B43D041232422E254226813686C
:1012400001218B4313606368226827490B401361B7
:101250002268936825490B409360E368012B34D0E2
:10126000A168226884231B020B439360E368022B6E
:1012700032D0226851681E4B0B4353602268D368FA
:101280001A490B40D360236962691343A2691202B1
:1012900021681343CB60E369216A22680B43136022
:1012A0002268136801210B43136000236364412209
:1012B0001F31A15423630132A354002010BD4033D9
:1012C0000022C254FFF79CF9B5E7A1682268802389
:1012D0001B020B439360C9E72368802212015A6006
:1012E000C7E70120EAE7C046FFFFFFF0FF7FFFFFEF
:1012F00000800002F0B54123C35C202B20D12033B5
:10130000C35C012B1ED04024012202554125242319
:1013100043550668336893433360066833680A4F61
:101320003B403360066833680B43336001680B68E9
:1013300013430B6020234355002303550020F0BDC9
:101340000220FCE70220FAE7FFEFFFFFF0B54123A0
:10135000C35C202B1ED12033C35C012B1CD0402446
:1013600001220255412524234355066833689343DF
:10137000336006683368094F3B4009021943316006
:1013800001680B6813430B6020234355002303556A
:101390000020F0BD0220FCE70220FAE7FFF0FFFF8B
:1013A000F0B583B0002356E086685F000324BC409C
:1013B000A643CC68BC4034438460446894434E6880
:1013C0003609012232409A402243426053E0DE084F
:1013D0000836B600375805321A4092000F24944060
:1013E000A7430C69944022003A43325056E003264A
:1013F00000E00026A64034003C4302329200444EF6
:101400009451444A1768EA433E00AE434C68E403F3
:1014100001D53E002E433F4C266067683E001640D3
:101420004C68A40301D53E002E433A4C6660A76881
:101430003E0016404C68E40201D53E002E43354C78
:10144000A660E66832404C68A40201D52A00324307
:10145000304CE26001330C682200DA4056D00122A1
:101460009A40250015401442F4D04E6803243440BD
:10147000013C012C98D94C6803222240032A08D051
:10148000C4685E000322B24094438A68B24022439B
:10149000C2604C6803222240022A98D004685E0091
:1014A00003221700B740BC434F683A40B240224382
:1014B00002604C68C02292021442CBD0164CA6693E
:1014C00001221643A661A46922400192019A9A085A
:1014D000941CA4000E4EA75903241C40A4000F2600
:1014E000A640B7439026F605B04282D00B4EB042DC
:1014F00008D00B4EB04207D00A4EB04200D176E77A
:10150000052677E7012675E7022673E703B0F0BDED
:1015100000000140000401400010024000040048A7
:1015200000080048000C0048002A01D08161704783
:101530008162FCE7426913000B401B0491430B439B
:101540008361704770B5002811DB8308134DC033E9
:101550009B005C5903221040C000FC3216008640FC
:10156000B44389010A40824022435A5170BD0F237F
:101570000340083B9B0806339B00094A944663449A
:101580005C6803221040C000FC3215008540AC436B
:1015900089010A40824022435A60E7E700E100E007
:1015A00000ED00E0013880235B0498420FD2094A25
:1015B00050600948036A1B021B0AC02109060B433D
:1015C00003620023936007331360002070470120FB
:1015D000FCE7C04610E000E000ED00E070B5041E3E
:1015E00000D178E0436A002B07D142680533FF330E
:1015F0009A4205D00023C36102E0002303614361E6
:101600000023A3625D33E35C002B5AD05D230222EA
:10161000E2542268136840218B431360E368E022A0
:10162000D200934254D90022F02109018B4205D007
:10163000E021C9008B4201D00023A36263688221AC
:1016400049000B40A1688420000201400B4320693F
:10165000022101400B436069012108400343A06956
:101660008025AD0028400343E56938202840034326
:10167000256A802028400343A06A8025AD012840C8
:10168000256803432B60608B04230340656A1020A8
:1016900028400343656B082028400343E068F02599
:1016A0002D01284003432068134343602268D36917
:1016B0000A480340D361002323665D33E1540020D0
:1016C00070BD5C330022E2542000FEF7CDFF9DE7A1
:1016D00080225201A8E70120F2E7C046FFF7FFFF92
:1016E00010B5040083680269134342691343C26959
:1016F000134301680A684948024013430B6022689B
:10170000536847490B40E1680B435360A369226A61
:101710001A4321688B684348034013438B60424B54
:101720001A6B03231340022B26D021D8002B25D07F
:10173000012B25D10333E06980221202904223D08D
:10174000042B63D052D8002B5AD0022B4CD13748EF
:1017500061684B081818FEF7B3FC0004000C020087
:10176000103A334B9A4256D82368D860002043E0A1
:10177000032B07D1013BDEE70823DCE70023DAE790
:101780001023D8E71023D6E7042B2AD01FD8002B2C
:1017900021D0022B19D12548400061684B08C018A0
:1017A000FEF78EFC83B20004000C01001039204AC1
:1017B00091422ED80F2293431A004008072303407A
:1017C00013432268D360002016E0012014E0082BA8
:1017D000E2D0012010E0FFF72BFC0028DCD1002034
:1017E0000AE0FFF747FBF8E7012005E0082B02D1EC
:1017F00080200002ACE7012000236366A36610BDD1
:10180000FFF716FC0028A3D10020F5E7FFF732FB15
:10181000F8E70120F0E70120EEE7C046F369FFFF9B
:10182000FFCFFFFFFFF4FFFF0010024000127A001D
:10183000EFFF0000436ADB0706D5026853682C49B6
:101840000B40816A0B435360436A9B0706D50268CD
:10185000536828490B40C16A0B435360436A5B07D6
:1018600006D50268536824490B40016B0B43536053
:10187000436A1B0706D50268536820490B40416B39
:101880000B435360436ADB0606D5026893681C4924
:101890000B40816B0B439360436A9B0606D502683D
:1018A000936818490B40C16B0B439360436A5B0616
:1018B0000BD50268536814490B40016C0B4353600D
:1018C000026C80235B039A420AD0436A1B0606D54A
:1018D000026853680D490B40816C0B43536070479D
:1018E000026853680A490B40416C0B435360ECE7B4
:1018F000FFFFFDFFFFFFFEFFFFFFFBFFFF7FFFFF7F
:10190000FFEFFFFFFFDFFFFFFFFFEFFFFFFFF7FF2F
:10191000FFFF9FFFF8B5CE46474680B506000D0095
:1019200017009946089B98463368DC692C40641B75
:1019300063425C41BC4253D143460133F4D0FFF7CC
:101940005BFC4B46C01A40452CD84346002B29D09F
:10195000326813685B07E7D5D3691B05E4D580239C
:101960001B011362EFF31080012282F310883168AB
:101970000B681E4C23400B6080F31088EFF310803F
:1019800082F3108831688B6893438B6080F31088F2
:101990002023B367F3677F32B35054330022F254ED
:1019A00003201EE0EFF31080012282F310883168DB
:1019B0000B680E4C23400B6080F31088EFF310800F
:1019C00082F3108831688B6893438B6080F31088B2
:1019D0002023B367F36754330022F254032000E05E
:1019E0000020C0BCB946B046F8BDC0465FFEFFFF50
:1019F00030B583B0040080230022C250FFF7FCFB07
:101A0000050023681B681B070DD423681B685B0750
:101A100016D42023A367E367002323667422A3540C
:101A2000002003B030BD80210C4B00930300002246
:101A300089032000FFF76EFF0028E6D00320F0E7BF
:101A40008021064B00932B000022C9032000FFF7E2
:101A500061FF0028DDD00320E3E7C046FFFFFF0160
:101A600010B5041E2ED0836F002B21D02423A36732
:101A70002268136801218B4313602000FFF730FEBA
:101A8000012814D0636A002B18D1226853680E49CC
:101A90000B4053602268936808218B43936022684F
:101AA000136807390B4313602000FFF7A1FF10BD37
:101AB00074330022C254FEF709FED7E72000FFF777
:101AC000B9FEE2E70120F2E7FFF7FFFF70470000F1
:101AD0000D4885460D480E490E4A002302E0D458B1
:101AE000C4500433C4188C42F9D30B4A0B4C002366
:101AF00001E013600432A242FBD3FFF7E7FF00F0DE
:101B000019F8FEF70FFDFEE700100020000000208E
:101B10000C000020DC1B00080C000020A0010020AD
:101B2000FEE703008218934200D170471970013319
:101B3000F9E7000070B500260C4C0D4D641BA41095
:101B4000A64209D1002600F019F80A4C0A4D641B80
:101B5000A410A64205D170BDB300EB5898470136DA
:101B6000EEE7B300EB5898470136F2E7D41B0008C4
:101B7000D41B0008D81B0008D41B0008F8B5C046C9
:101B8000F8BC08BC9E467047F8B5C046F8BC08BC17
:041B90009E467047B6
:101B940002030405060708090A0B0C0D0E0F1010AA
:101BA400000000000102030405060708090A0B0CE3
:101BB4000D0E0F10000000000000000000000000E7
:101BC40001020304060708090000000001020304DF
:041BD4004D020008B6
:041BD80021020008DE
:0C1BDC00010000000400000000127A006C
:0400000508001AD104
:00000001FF
