:020000040800F2
:1000000000100020412C00082F0D0008310D0008C1
:1000100000000000000000000000000000000000E0
:10002000000000000000000000000000330D000888
:100030000000000000000000350D0008370D00082A
:10004000912C000800000000912C0008912C000861
:10005000912C0008912C0008912C0008912C00088C
:1000600000000000912C0008912C0008912C000841
:10007000912C0008912C0008912C00080000000031
:10008000912C00080000000000000000912C0008E6
:1000900000000000912C0008912C0008912C000811
:1000A00000000000912C000800000000912C0008C6
:1000B0000000000000000000000000000000000040
:1000C0000023C25C0133002AFBD1581E7047000098
:1000D00003B47146490840004900095E49008E4456
:1000E00003BC7047002243088B4274D303098B4240
:1000F0005FD3030A8B4244D3030B8B4228D3030CF8
:100100008B420DD3FF22090212BA030C8B4202D399
:100110001212090265D0030B8B4219D300E0090AC1
:10012000C30B8B4201D3CB03C01A5241830B8B42CA
:1001300001D38B03C01A5241430B8B4201D34B03B3
:10014000C01A5241030B8B4201D30B03C01A524118
:10015000C30A8B4201D3CB02C01A5241830A8B429D
:1001600001D38B02C01A5241430A8B4201D34B0286
:10017000C01A5241030A8B4201D30B02C01A5241EA
:10018000CDD2C3098B4201D3CB01C01A524183099E
:100190008B4201D38B01C01A524143098B4201D3D8
:1001A0004B01C01A524103098B4201D30B01C01A03
:1001B0005241C3088B4201D3CB00C01A524183087D
:1001C0008B4201D38B00C01A524143088B4201D3AA
:1001D0004B00C01A5241411A00D20146524110460A
:1001E0007047FFE701B5002000F0F0F802BDC046FF
:1001F0000029F7D076E7704703460B437FD40022EF
:1002000043088B4274D303098B425FD3030A8B42AA
:1002100044D3030B8B4228D3030C8B420DD3FF2214
:10022000090212BA030C8B4202D31212090265D0E2
:10023000030B8B4219D300E0090AC30B8B4201D395
:10024000CB03C01A5241830B8B4201D38B03C01ADC
:100250005241430B8B4201D34B03C01A5241030B53
:100260008B4201D30B03C01A5241C30A8B4201D304
:10027000CB02C01A5241830A8B4201D38B02C01AAF
:100280005241430A8B4201D34B02C01A5241030A26
:100290008B4201D30B02C01A5241CDD2C3098B420B
:1002A00001D3CB01C01A524183098B4201D38B0188
:1002B000C01A524143098B4201D34B01C01A52412B
:1002C00003098B4201D30B01C01A5241C3088B4270
:1002D00001D3CB00C01A524183088B4201D38B005B
:1002E000C01A524143088B4201D34B00C01A5241FD
:1002F000411A00D201465241104670475DE0CA0FD4
:1003000000D04942031000D34042534000229C4693
:1003100003098B422DD3030A8B4212D3FC2289019D
:1003200012BA030A8B420CD3890192118B4208D373
:10033000890192118B4204D389013AD0921100E0D5
:100340008909C3098B4201D3CB01C01A52418309E9
:100350008B4201D38B01C01A524143098B4201D316
:100360004B01C01A524103098B4201D30B01C01A41
:100370005241C3088B4201D3CB00C01A52418308BB
:100380008B4201D38B00C01A5241D9D243088B4211
:1003900001D34B00C01A5241411A00D201466346B4
:1003A00052415B10104601D34042002B00D5494218
:1003B000704763465B1000D3404201B5002000F057
:1003C00005F802BD0029F8D016E770477047C0460F
:1003D0000448054B10B5834203D0044B002B00D0DA
:1003E000984710BD5C0000205C0000200000000069
:1003F00006480749091A8B10C90FC91810B54910CA
:1004000003D0044B002B00D0984710BD5C000020A7
:100410005C0000200000000010B5074C2378002B82
:1004200009D1FFF7D5FF054B002B02D0044800E0AF
:1004300000BF0123237010BD5C00002000000000FD
:10044000E0350008054B10B5002B03D004490548E2
:1004500000E000BFFFF7CCFF10BDC0460000000069
:1004600060000020E0350008F0B5C64600B588B051
:100470001422002103A802F02DFC2E4B5A69802182
:10048000C9030A435A615A690A400092009A5A699C
:10049000802189020A435A615A690A400192019AED
:1004A0005A698021C9020A435A615B690B40029371
:1004B000029B214B984600220321180001F01CFCEE
:1004C0009026F60500221021300001F015FC1B4F8C
:1004D00000220221380001F00FFC032303930125C1
:1004E000049500240594069403A9404601F040FBBE
:1004F00002239846039388235B030493059403A97E
:10050000300001F035FB1023039304950594069405
:1005100003A9300001F02CFB434603930495059496
:10052000069403A9380001F023FB08B080BCB8464C
:10053000F0BDC0460010024000140048000400480E
:1005400072B6FEE700B585B00C22002101A802F0CA
:10055000C1FB1748174B0360002343608360C360EF
:100560000122026104214161037643768376C376DA
:10057000C221FF31C16103629E39FF394354826257
:1005800000F0C0FC00280FD10023019380235B0101
:10059000029380235B050393054801A900F074FDD5
:1005A000002803D105B000BDFFF7CAFFFFF7C8FF61
:1005B0008C0000200024014010B51248124B03604B
:1005C000124B4360002383600122C26003614361D8
:1005D0008361C361036201F00FFA00280CD109485E
:1005E000002101F06FFA002808D10648002101F02F
:1005F00095FA002804D110BDFFF7A2FFFFF7A0FF76
:10060000FFF79EFFCC000020005400405D3E3020EC
:1006100010B51048104B036082235B004360002339
:100620008360C0229200C26003614361013AFF3AD5
:100630008261F93AFF3AC261036243628362072131
:10064000C1620363426301F023FD002800D110BDA5
:10065000FFF776FF180100200030014010B50B486D
:100660000B4B036096231B02436000238360C3602F
:1006700003610C2242618361C3610362436202F041
:10068000A7FA002800D110BDFFF75AFF7C01002017
:100690000038014010B594B03022002108A802F0C3
:1006A00019FB10241022002104A802F013FB1022D1
:1006B0000021684602F00EFB12230893113B0B93B6
:1006C0000D930C940E9401331093A0239B0312936B
:1006D00008A800F069FD002819D107230493053B01
:1006E0000593002306930793012104A800F0E8FF77
:1006F00000280ED12123009300230293103303938B
:10070000684601F08DF8002805D114B010BDFFF740
:1007100017FFFFF715FFFFF713FF0000F0B5D646F0
:100720004F464646C0B58CB001F032F9FFF7B2FF34
:10073000FFF79AFEFFF706FFFFF73EFFFFF768FFA0
:10074000FFF78CFF444C6D46280000F097F823001B
:10075000280026C826C326C826C326C826C306C81E
:1007600006C39022D20522601023A3803B4BA360D6
:100770000223A3812261A382394BA361B223FF33F9
:100780002362AB3BFF3B2422A3540132A3541F330B
:10079000243AE2540433FB32E2540133983AE254EF
:1007A000213B2385200000F07EF8200000F043FA72
:1007B0000621200000F00CF92A4B99460122022163
:1007C000180001F099FA00220121484601F094FA3C
:1007D000254D01236B702048633303222900804696
:1007E00000F0E2F96A78214F214C3900200002F034
:1007F00051FA2000FFF764FC82B21E4E3223210022
:10080000300002F02BF91C4B9A46180001F0E2F878
:1008100001220121484601F06FFA002202214846D8
:1008200001F06AFA02232B7062330322290040464A
:1008300000F0BAF96A783900200002F02BFA2000A3
:10084000FFF73EFC82B232232100300002F006F9AD
:10085000504601F0BFF8AFE7040200200004004852
:10086000180100200014004800020020F83500089C
:10087000780000207C010020B80B0000B223FF3379
:100880000362AB3BFF3B24228354013283541F336A
:10089000243AC2540433FE32C25401339B3AC25448
:1008A000233B0385704710B50400818980680022CE
:1008B00001F022FA012001F08DF8A189A06801223F
:1008C00001F01AFA642001F085F810BDF0B5C646B3
:1008D00000B504000E0017001D0006AB1B889846EB
:1008E00081880068002201F007FAFA23A069DB0082
:1008F0003A00310001F04EFCA06901F023FF01280D
:10090000FAD1FA23A069DB004246290001F044FE37
:10091000A06901F017FF0128FAD1A18820680122FF
:1009200001F0EAF980BCB846F0BDF0B5C64600B5A6
:1009300004000E0017001D0006AB1B889846818836
:100940000068002201F0D8F9FA23A069DB003A0020
:10095000310001F01FFCA06901F0F4FE0128FAD17A
:10096000FA23A069DB004246290001F013FCA069CC
:1009700001F0E8FE0128FAD1A1882068012201F0E7
:10098000BBF980BCB846F0BD10B584B07F230B40E6
:100990000E2169440B700F246C4401230093230043
:1009A0000122FFF793FF207804B010BD10B584B08A
:1009B0000C000E21694480235B4223430B700F23FC
:1009C0006B441A7001220092FFF7AFFF04B010BD14
:1009D00070B504000D000121FFF7D6FF0200002DC5
:1009E00009D107239843C2B20023E361012120000B
:1009F000FFF7DCFF70BD012D0ED0032D15D0052DA6
:100A00001CD0062DF2D10723984340B20623184389
:100A1000C2B20623E361E9E70723984342B2012308
:100A20001A43D2B20123E361E0E70723984342B2BD
:100A300003231A43D2B20323E361D7E70723984382
:100A400042B205231A43D2B20523E361CEE770B563
:100A50000500CC046411220CD2B20621FFF7A6FFD8
:100A6000052000F0B7FF220AD2B207212800FFF7C5
:100A70009DFF052000F0AEFFE2B208212800FFF73D
:100A800095FF052000F0A6FF70BD70B505000C00B5
:100A90000C2903DC062902DC072400E00C241E21BB
:100AA0002800FFF771FF06000A2000F093FF2201E3
:100AB000D2B20F2030401218D2B21E212800FFF708
:100AC00075FF0A2000F086FF70BD10B50A000921ED
:100AD000FFF76CFF0A2000F07DFF10BD10B5040089
:100AE0002C290BD9F0290AD9F021F02919D81E3167
:100AF00008000A21FFF780FBC2B208E02D21782907
:100B0000F3D82D3908000521FFF776FBC2B2203259
:100B1000D2B20B212000FFF749FF0A2000F05AFF54
:100B200010BD0022F3E710B504001E21FFF72CFFD3
:100B300007231843C2B21E212000FFF737FF0A2007
:100B400000F048FF10BDF0B583B0040016001D0092
:100B50006B46DF1D80235B420B433B70818800683E
:100B6000002201F0C9F8FA23A069DB000122390054
:100B700001F010FBA06901F0E5FD0128FAD1FA238C
:100B8000AAB2A069DB00310001F004FBA06901F00A
:100B9000D9FD0128FAD1A1882068012201F0ACF822
:100BA00003B0F0BD01207047F0B5C64600B50500A2
:100BB000884616001C00C7690121FFF709FF0E21B6
:100BC0002800FFF7E1FE02000D212800FFF7EEFEEE
:100BD000320022212800FFF7E9FE330042460021BF
:100BE0002800FFF7B0FF03212800FFF7F1FE10E017
:100BF000FF2212212800FFF7D9FE39002800FFF755
:100C0000E7FE0126300080BCB846F0BD012000F0B0
:100C1000E1FE12212800FFF7B7FE08231E00064060
:100C20000342E5D1013CA4B2002CEFD139002800E9
:100C3000FFF7CEFEE6E770B50400FFF7B3FF00282C
:100C400002D1F820FF3070BD00212000FFF7C0FE68
:100C50000A2000F0BFFE01212000FFF795FE0500ED
:100C60000A2000F0B7FE802252422A43D2B201216C
:100C70002000FFF79BFE642000F0ACFE216A2000FC
:100C8000FFF7E5FE2A23E15C2000FFF71EFF2B2380
:100C9000E15C2000FFF722FF23220C212000FFF758
:100CA00085FE2000FFF73FFF2423E15C2000FFF7D3
:100CB000ECFEFF221F212000FFF778FE2523E25CD7
:100CC0001201D2B20133E35C5B00DBB2D218D2B2C4
:100CD0001D212000FFF76AFE228D120A202120002C
:100CE000FFF764FE228DD2B221212000FFF75EFEC5
:100CF00040212000FFF748FE3F231843C2B24021A5
:100D00002000FFF753FE01212000FFF761FE0123C1
:100D1000E3610A2000F05EFE42212000FFF734FE6E
:100D2000122802D0CA2040008DE7B6308BE7FEE7DC
:100D3000FEE77047704710B500F03AFE10BD0000A6
:100D400082B00A4B996901221143996199690A405D
:100D50000092009ADA69802149050A43DA61DB6969
:100D60000B400193019B02B07047C0460010024047
:100D700010B588B004001422002103A801F0AAFFD6
:100D80002268114B9A4201D008B010BD0F4B9A69EE
:100D9000802189000A439A619A690A400192019A66
:100DA0005A69802189020A435A615B690B400293A8
:100DB000029B0123039302330493902003A9C005EF
:100DC00000F0D6FEE0E7C0460024014000100240DB
:100DD00010B588B004001422002103A801F07AFFA6
:100DE0002268134B9A4201D008B010BD114C6369C0
:100DF0008022920213436361636913400193019B54
:100E0000C023DB000393122304930F3B06930133AB
:100E10000793902003A9C00500F0AAFEE369802291
:100E200092031343E361E36913400293029BDBE700
:100E3000005400400010024010B588B00400142295
:100E4000002103A801F046FF2268124B9A4201D00C
:100E500008B010BD104B9A69802149010A439A617C
:100E60009A690A400192019A5A69802189020A43CB
:100E70005A615B690B400293029BE0230393DE3BC4
:100E8000049301330693902003A9C00500F070FE7F
:100E9000DEE7C046003001400010024010B588B0C7
:100EA00004001422002103A801F014FF2268134B50
:100EB0009A4201D008B010BD114B9A698021C90136
:100EC0000A439A619A690A400192019A5A698021FB
:100ED00089020A435A615B690B400293029B0C230F
:100EE00003930A3B049301330693023B079390203C
:100EF00003A9C00500F03CFEDCE7C0460038014015
:100F00000010024070B5041E00D1B4E0836B002BCA
:100F100000D180E0A36BDB0600D5A6E023689A68C9
:100F2000042108001040114200D09EE0A26B5349FA
:100F30000A400631FF310A43A263996803220A403E
:100F4000012A6ED0DA6818218A43A1680A43DA6060
:100F5000226813699B009B0861680B431361226838
:100F6000D36847490B40D360237E9B03627ED20344
:100F70001343A17E4A031343A26A012A58D0802258
:100F800052011343E26813432269022A52D00343F9
:100F90002422A25C52001343E27E012A4CD0E26973
:100FA000C221FF318A4202D0216A0A4313432168D9
:100FB000CA681A43CA60E26A802149058A420DD094
:100FC000012A0BD0022A09D0032A07D0042A05D00F
:100FD000052A03D0062A01D0072A0AD120684169D0
:100FE00007229143416120684169E56A2A400A432A
:100FF00042612268D26823490A409A422BD0A36BEF
:1010000012229343023A1343A363E36B0F3A134351
:10101000E36301202EE0C36334228354FFF7A8FE6C
:1010200078E71A68D2079AD4DA68120497D489E765
:101030000200A6E70420AAE7002903D18022520279
:101040001343ACE7A26B20210A43A263E26B1F3972
:101050000A43E263A3E70023E363A36B0322934302
:10106000023A1343A363002004E0A36B102213434E
:10107000A363012070BD0120FCE7C046FDFEFFFF19
:101080001902FEFFE7FF3F8330B583B00400002361
:1010900001933433C35C012B00D176E03423012269
:1010A000C254026893685B0765D44868384B98421D
:1010B00048D0936A0D680120A84003439362E36A15
:1010C00080225205934213D0013B062B10D9886829
:1010D0002268556907232B40984209D0506907239D
:1010E00098435061206842698D682B4013434361E7
:1010F0000B681A00103A012A01D9002040E0254A65
:101100001268102B09D08023DB031343214A13609C
:101110000B68102B04D0002032E080231B04F4E77E
:101120001D4B18681D49FEF7DDFF83001B185B008F
:10113000019302E0019B013B0193019B002BF9D13C
:1011400000201DE0936A0D680120A840834393624C
:101150000B681A00103A012A01D9002010E00D4A4C
:101160001268102B05D00E4B13400A4A1360002062
:1011700006E00C4BF8E7836B2022134383630120C6
:1011800034230022E25403B030BD0220FBE7C04606
:1011900001100000082701400800002040420F0015
:1011A000FFFFBFFFFFFF7FFF70B582B0041E00D1BD
:1011B0002EE20368DB0726D5AE4B5A680C2313409A
:1011C000042B18D0AB4B5A680C231340082B0ED0BD
:1011D0006368012B3CD0002B51D1A64B1A68A6495D
:1011E0000A401A601A68A5490A401A6036E0A14B05
:1011F0005B68DB03ECD59F4B1B689B0303D56368DF
:10120000002B00D107E223689B0772D5994B5B68DE
:101210000C221A425DD0974B5A680C231340082BBE
:1012200053D0E368002B00D185E0924A1368012176
:101230000B43136000F0C8FB05008E4B1B689B0737
:1012400070D400F0C1FB401B0228F6D90320E0E176
:10125000884A116880235B020B4313606368002B8C
:1012600025D000F0B1FB0500824B1B689B03CAD45C
:1012700000F0AAFB401B6428F6D90320C9E1052B26
:1012800009D07C4B1A687C490A401A601A687B496D
:101290000A401A60E2E7774B19688022D2020A43BB
:1012A0001A601968802252020A431A60D6E700F0D9
:1012B0008BFB05006F4B1B689B03A4D500F084FBE0
:1012C000401B6428F6D90320A3E16A4B5B68DB036B
:1012D000A7D4684B1B689B0703D5E368012B00D09C
:1012E0009BE164490B68F82293432269D2001343BF
:1012F0000B6023681B0744D5E369002B2ED05D4AA1
:10130000536A01210B43536200F05EFB0500594B09
:101310005B6A9B0735D400F057FB401B0228F6D9C7
:10132000032076E153490B68F82293432269D200E7
:1013300013430B60DDE74F4A136801218B431360B1
:1013400000F042FB05004B4B1B689B07D1D500F01A
:101350003BFB401B0228F6D903205AE1454A536A59
:1013600001218B43536200F02FFB0500414B5B6A68
:101370009B0706D500F028FB401B0228F6D9032066
:1013800047E123685B0700D480E03A4BDB69DB0070
:101390001DD4384BDA69802149050A43DA61DB69DB
:1013A0000B400193019B0125354B1B68DB0510D5D4
:1013B000A368012B21D0002B36D12E4B1A6A0121B4
:1013C0008A431A621A6A03318A431A621AE00025B4
:1013D000EAE72B4A116880235B000B43136000F09F
:1013E000F3FA0600264B1B68DB05E1D400F0ECFAAB
:1013F000801B6428F6D903200BE11E4A136A0121E1
:101400000B431362A368002B24D000F0DDFA060022
:10141000184B1B6A9B0737D400F0D6FA801B194B78
:101420009842F5D90320F4E0052B09D0114B1A6A34
:1014300001218A431A621A6A03318A431A62E1E778
:101440000C4B1A6A04210A431A621A6A03390A43C6
:101450001A62D7E700F0B8FA0600064B1B6A9B0732
:1014600012D500F0B1FA801B064B9842F5D9032043
:10147000CFE0C04600100240FFFFFEFFFFFFFBFF72
:101480000070004088130000012D33D02368DB0674
:1014900010D56369012B33D0053351D1654A536BA5
:1014A00004218B435363536BF4318B43A169C9000F
:1014B0000B435363236A002B00D1B0E05D4A5168AF
:1014C0000C220A40082A00D18AE0022B4FD0594A48
:1014D000136859490B40136000F076FA0400554B2D
:1014E0001B689B017AD500F06FFA001B0228F6D921
:1014F00003208EE04F4AD36950490B40D361C5E7C2
:101500004C4B5A6B04210A435A635A6B03390A4302
:101510005A6300F059FA0500464B5B6B9B0706D4F3
:1015200000F052FA401B0228F6D9032071E041492D
:101530004B6BF8229343A269D20013434B63B9E784
:101540003C4B5A6B04210A435A635A6B03398A4352
:101550005A6300F039FA0500364B5B6B9B07A9D53F
:1015600000F032FA401B0228F6D9032051E0314A3C
:10157000136831490B40136000F026FA05002D4B2B
:101580001B689B0106D500F01FFA401B0228F6D904
:1015900003203EE0274BDA6A0F218A43E16A0A43BF
:1015A000DA625A6826490A40A16A606A01430A431E
:1015B0005A601968802252040A431A6000F004FA43
:1015C00004001C4B1B689B0106D400F0FDF9001BB6
:1015D0000228F6D903201CE000201AE0002018E0C1
:1015E000012B1ED0134B5A68D86A80235B0213402C
:1015F000616A8B4217D10F230340E16A8B4214D1F9
:10160000F0239B031A40A36A9A4210D1002000E005
:10161000012002B070BD0120FBE70120F9E70020A6
:10162000F7E70120F5E70120F3E70120F1E70120CA
:10163000EFE7C04600100240FFFFFFFEFFFFFFEF95
:10164000FFFFC2FF30B589B004AA184B31CB31C2BD
:101650001B6813606A46164B31CB31C21B6813609E
:10166000144B5A680C231340042B1AD0082B1AD1A0
:10167000910C0733194004A8445C0E49C96A0B4019
:101680006946C95CD20304D50B48FEF72BFD6043C5
:101690000AE06201121B93019B1ADB001B1918025E
:1016A00002E0054800E0054809B030BD04360008F6
:1016B0001836000800100240001BB70000127A0024
:1016C00070B504000D00002800D17EE0434B1A687D
:1016D000012313408B420AD240490B6801229343F5
:1016E0002B430B600B681A40AA4200D06FE02368BE
:1016F0009A070ED55B0705D5394A5168E023DB0010
:101700000B435360364A5368F0218B43A1680B4367
:1017100053602368DB072DD56368012B1ED0022B95
:1017200022D02F4A1268920753D52D494A680320C8
:10173000824313434B6000F047F90600284B5B6877
:101740000C221A4063689B009A4213D000F03CF9C7
:10175000801B244B9842F1D9032035E0204A1268BF
:101760009203E2D401202FE01D4A12689201DCD4DA
:10177000012029E0194B1A6801231340AB4209D913
:1017800016490B68012293432B430B600B681A40E8
:10179000AA4220D123685B0706D5114A5368124933
:1017A0000B40E1680B435360FFF74CFF0C4B5A684A
:1017B00012090F2313400D4AD35CD8400C4B18601C
:1017C000032000F0BDF8002070BD0120FCE70120DF
:1017D000FAE70120F8E70120F6E7C04600200240C2
:1017E0000010024088130000FFF8FFFF2C360008AD
:1017F00008000020014B18687047C0460800002010
:1018000010B5FFF7F7FF044B5A68120A072313407D
:10181000024AD35CD84010BD001002403C3600089C
:1018200070B582B004000368DB0339D53E4BDB6939
:10183000DB004BD43C4BDA69802149050A43DA616D
:10184000DB690B400193019B0125384B1B68DB05CD
:101850003ED5354B1A6AC0239B00110019401A422D
:1018600015D06368C022920013408B420FD02E4BDC
:101870001A6A2F4911401E6A8020400230431862C4
:10188000186A2C4E304018621962D20734D4264AA6
:10189000136A27490B4061680B431362012D3AD04C
:1018A0002368DB0706D5204A136B03218B43A1680D
:1018B0000B43136323689B0632D51B4A136B10211D
:1018C0008B43E1680B43136300202AE00025BCE74B
:1018D000164A116880235B000B43136000F074F814
:1018E0000600124B1B68DB05B3D400F06DF8801BBB
:1018F0006428F6D9032014E000F066F806000A4BCD
:101900001B6A9B07C3D400F05FF8801B0A4B984208
:10191000F5D9032005E0D36908490B40D361BFE73F
:10192000002002B070BDC0460010024000700040B0
:10193000FFFCFFFFFFFFFEFF88130000FFFFFFEF2C
:1019400010B504000F4B1978FA208000FEF7CAFB8F
:1019500001000D4B1868FEF7C5FB00F003FA0028E4
:101960000DD1032C01D901200AE001300022210011
:10197000404200F0C7F9054B1C60002000E0012048
:1019800010BDC04600000020080000200400002018
:1019900010B5064A136810210B4313600320FFF7AC
:1019A000CFFFFFF7CDF9002010BDC0460020024058
:1019B000034A1168034B1B785B1813607047C046DD
:1019C0003002002000000020014B18687047C0461C
:1019D0003002002070B50400FFF7F6FF0500631C1D
:1019E00002D0044B1B78E418FFF7EEFF401BA04227
:1019F000FAD370BD0000002010B5041E59D0412359
:101A0000C35C002B43D041232422E2542268136894
:101A100001218B4313606368226827490B401361DF
:101A20002268936825490B409360E368012B34D00A
:101A3000A168226884231B020B439360E368022B96
:101A400032D0226851681E4B0B4353602268D36822
:101A50001A490B40D360236962691343A2691202D9
:101A600021681343CB60E369216A22680B4313604A
:101A70002268136801210B43136000236364412231
:101A80001F31A15423630132A354002010BD403301
:101A90000022C254FFF79CF9B5E7A16822688023B1
:101AA0001B020B439360C9E72368802212015A602E
:101AB000C7E70120EAE7C046FFFFFFF0FF7FFFFF17
:101AC00000800002F0B54123C35C202B20D12033DD
:101AD000C35C012B1ED04024012202554125242342
:101AE00043550668336893433360066833680A4F8A
:101AF0003B403360066833680B43336001680B6812
:101B000013430B6020234355002303550020F0BDF1
:101B10000220FCE70220FAE7FFEFFFFFF0B54123C8
:101B2000C35C202B1ED12033C35C012B1CD040246E
:101B30000122025541252423435506683368934307
:101B4000336006683368094F3B400902194331602E
:101B500001680B6813430B60202343550023035592
:101B60000020F0BD0220FCE70220FAE7FFF0FFFFB3
:101B7000F0B583B0002356E086685F000324BC40C4
:101B8000A643CC68BC4034438460446894434E68A8
:101B90003609012232409A402243426053E0DE0877
:101BA0000836B600375805321A4092000F24944088
:101BB000A7430C69944022003A43325056E0032672
:101BC00000E00026A64034003C4302329200444E1E
:101BD0009451444A1768EA433E00AE434C68E4031C
:101BE00001D53E002E433F4C266067683E001640FC
:101BF0004C68A40301D53E002E433A4C6660A768AA
:101C00003E0016404C68E40201D53E002E43354CA0
:101C1000A660E66832404C68A40201D52A0032432F
:101C2000304CE26001330C682200DA4056D00122C9
:101C30009A40250015401442F4D04E6803243440E5
:101C4000013C012C98D94C6803222240032A08D079
:101C5000C4685E000322B24094438A68B2402243C3
:101C6000C2604C6803222240022A98D004685E00B9
:101C700003221700B740BC434F683A40B2402243AA
:101C800002604C68C02292021442CBD0164CA66966
:101C900001221643A661A46922400192019A9A0882
:101CA000941CA4000E4EA75903241C40A4000F2628
:101CB000A640B7439026F605B04282D00B4EB04204
:101CC00008D00B4EB04207D00A4EB04200D176E7A2
:101CD000052677E7012675E7022673E703B0F0BD16
:101CE00000000140000401400010024000040048D0
:101CF00000080048000C0048002A01D081617047AC
:101D00008162FCE770B5002811DB8308134DC033F6
:101D10009B005C5903221040C000FC321600864034
:101D2000B44389010A40824022435A5170BD0F23B7
:101D30000340083B9B0806339B00094A94466344D2
:101D40005C6803221040C000FC3215008540AC43A3
:101D500089010A40824022435A60E7E700E100E03F
:101D600000ED00E0013880235B0498420FD2094A5D
:101D700050600948036A1B021B0AC02109060B4375
:101D80000362002393600733136000207047012033
:101D9000FCE7C04610E000E000ED00E0F0B5D646FC
:101DA0004F464646C0B582B006000D0090461F0063
:101DB000FFF70AFE0A9B181A8146B944FFF704FE92
:101DC00082462E4B1B685B011B0D4A465343019311
:101DD00033689C682C40641B63425C41444545D099
:101DE0007B1CF5D0FFF7F0FD5346C01A48450BD2D7
:101DF0004B46002B08D0019A002A00D04A46019B8E
:101E0000013B01939146E3E732685368E0218B433D
:101E10005360726882235B009A420CD0B26A8023BE
:101E20009B019A4216D05D230122F254013B00220D
:101E3000F25403201BE0B36880221202934203D0C5
:101E40008022D2009342E9D13268136840218B434B
:101E50001360E3E73268136809490B401360326886
:101E6000116880239B010B431360DCE7002002B064
:101E7000E0BCBA46B146A846F0BDC0460800002006
:101E8000FFDFFFFFF0B5DE4657464E464546E0B55C
:101E900083B007000D00160098466B460022DA70EA
:101EA000FFF792FD0C9B181A40448146FFF78CFD0A
:101EB00082463B689B46364B1B689A00D218D3007B
:101EC0009B1A1B0D4A465343019302E043460133DC
:101ED00011D13B689C682C40B44250D0C023DB0039
:101EE0009D42F3D1002EF1D15B461B7BDBB26A46EB
:101EF000D370D378EAE7FFF767FD5346C01A484529
:101F00000BD24B46002B08D0019A002A00D04A463B
:101F1000019B013B01939146DBE73A685368E0215E
:101F20008B4353607A6882235B009A420CD0BA6A72
:101F300080239B019A4216D05D230122FA54013B73
:101F40000022FA5403201BE0BB6880221202934255
:101F500003D08022D2009342E9D13A68136840212D
:101F60008B431360E3E73A6813680A490B40136038
:101F70003A68116880239B010B431360DCE7002063
:101F800003B0F0BCBB46B246A946A046F0BDC04671
:101F900008000020FFDFFFFF70B582B004000D00D5
:101FA0001600C02100922B0000224901FFF76AFFB2
:101FB000002818D100962B00002280212000FFF776
:101FC000EDFE002816D1C02100962B000022C9008A
:101FD0002000FFF757FF00280AD0236E202213436A
:101FE0002366032004E0236E20221343236603208C
:101FF00002B070BD236E2022134323660320F7E74F
:1020000070B582B004000D001600426882235B00A8
:102010009A420FD000962B00002280212000FFF76B
:10202000BDFE002815D1626882235B009A4216D05B
:1020300002B070BD836880221202934203D08022D6
:10204000D2009342E6D12268136840218B4313608B
:10205000E0E7236E2022134323660320E8E7A3680A
:1020600080221202934203D08022D2009342DFD119
:10207000C02100962B000022C9002000FFF702FFBC
:102080000028D5D0236E2022134323660320CFE7F8
:1020900070B5041E00D178E0436A002B07D1426876
:1020A0000533FF339A4205D00023C36102E00023C9
:1020B000036143610023A3625D33E35C002B5AD0CC
:1020C0005D230222E2542268136840218B4313608F
:1020D000E368E022D200934254D90022F0210901A2
:1020E0008B4205D0E021C9008B4201D00023A362BE
:1020F0006368822149000B40A168842000020140EE
:102100000B432069022101400B4360690121084013
:102110000343A0698025AD0028400343E5693820CA
:1021200028400343256A802028400343A06A802575
:10213000AD012840256803432B60608B04230340D6
:10214000656A102028400343656B0820284003433C
:10215000E068F0252D0128400343206813434360C5
:102160002268D3690A480340D361002323665D33A4
:10217000E154002070BD5C330022E2542000FEF7E1
:102180005BFE9DE780225201A8E70120F2E7C046EE
:10219000FFF7FFFFF0B5CE4600B584B00400019113
:1021A00091461D005C23C35C012B00D1C9E05C2378
:1021B0000122C254FFF708FC06005D23E35CDFB296
:1021C000012B00D0A9E00199002900D1A6E04B46DF
:1021D000002B00D1A2E05D230322E25400232366FA
:1021E000A1634A46A287E28723644422A3520232B3
:1021F000A3522365E364A26880231B029A421ED087
:10220000226813685B0603D4136840210B431360F4
:10221000E268E023DB009A4239D96368002B02D0E0
:102220004B46012B20D1A26B23681288DA60A36B86
:102230000233A363E38F013B9BB2E38714E0226880
:10224000136840218B431360226811688023DB01EF
:102250000B431360D4E7FFF7B7FB801BA84201D301
:102260006B1C66D1002D66D0E18F89B200293CD06D
:10227000226893689B07EED5A36B1B88D360A36B82
:102280000233A363E38F013B9BB2E387ECE7636810
:10229000002B02D04B46012B14D1A26B236812787D
:1022A0001A73A36B0133A363E38F013B9BB2E387F4
:1022B00008E0FFF789FB801BA84201D36B1C3CD1CF
:1022C000002D3CD0E18F89B200290ED0226893689E
:1022D0009B07EED5A36B1B781373A36B0133A3632A
:1022E000E38F013B9BB2E387ECE73200290020003B
:1022F000FFF752FE002801D020232366A368002B9D
:1023000006D103932368DA6803929B680393039BC7
:10231000236E002B02D1002700E002275D2301225B
:10232000E254013B0022E254380004B080BCB946BC
:10233000F0BD0327F2E70327F0E70327EEE70327C3
:10234000ECE70227F0E70000F0B583B0040000914D
:1023500001921E00089D5C23C35C012B00D116E195
:102360005C230122C254FFF72FFB07005D23E35CCF
:10237000D9B26268012B0BD082235B009A4200D055
:10238000ECE0A368002B00D0F1E0042900D0F0E0DD
:10239000009B002B00D1EEE0019B002B00D1ECE074
:1023A000002E00D1EBE05D23E35C042B02D05D2323
:1023B0000522E25400232366019A22644622A65293
:1023C000023AA652009AA263E687A687E3642365D1
:1023D000E268E023DB009A4223D9226853686D4902
:1023E0000B40536023681A68520603D41A684021D0
:1023F0000A431A60E268E023DB009A4254D963681A
:10240000002B01D0012E0AD1A26B23681288DA605A
:10241000A36B0233A363E38F013B9BB2E3870126E7
:102420002EE02268516880235B010B435360D9E79B
:10243000A36B1B88D360A36B0233A363E38F013BC1
:102440009BB2E387002622689368DB0710D54623FA
:10245000E35A9BB2002B0BD0D268236C1A80236CFA
:10246000023323644622A35A013B9BB2A3520126A6
:10247000FFF7AAFAC01BA84202D36B1C00D080E071
:10248000E38F9BB2002B04D14633E35A9BB2002B5F
:1024900059D0226893689B07D5D5E38F9BB2002B58
:1024A000D1D0012ECFD1C3E76368002B01D0012E1C
:1024B0000AD1A26B236812781A73A36B0133A3634A
:1024C000E38F013B9BB2E38701261DE022689368FE
:1024D000DB0710D54623E35A9BB2002B0BD0236CAD
:1024E000127B1A70236C013323644622A35A013BEA
:1024F0009BB2A3520126FFF767FAC01BA84201D383
:102500006B1C40D1002D40D0E38F9BB2002B04D137
:102510004633E35A9BB2002B15D0226893689B0781
:10252000D4D5E38F9BB2002BD0D0012ECED1A36B9C
:102530001B781373A36B0133A363E38F013B9BB23F
:10254000E3870026C2E73A0029002000FFF724FDB8
:10255000002804D020232366012000E002205D2310
:102560000122E254013B0022E25403B0F0BD0220FC
:10257000F5E70220F3E70120F1E70120EFE7012072
:10258000EDE70320EBE70320E9E70320E7E702207C
:10259000EBE7C046FFEFFFFFF0B5C64600B584B0DD
:1025A0000400039190461D00426882235B009A421A
:1025B00045D05C23E35C012B00D1BDE05C2301220C
:1025C000E254FFF701FA07005D23E35CDEB2012B62
:1025D00000D09DE00399002900D19AE04346002BEA
:1025E00000D196E05D230422E25400232366216497
:1025F00040324146A1520232A152A363A387E3872E
:10260000E3642365E268E023DB009A4224D9226870
:1026100053684A490B405360A26880231B029A42C8
:1026200021D0226813685B0603D4136840210B4352
:102630001360E268E023DB009A4228D945E0836812
:10264000002BB6D15D330422C254009543460A00E4
:10265000FFF77AFE060062E02268516880235B0182
:102660000B435360D8E72268136840218B43136003
:102670002268136832490B401360D2E7FFF7A4F9D0
:10268000C01BA84201D36B1C4ED1002D4ED0462357
:10269000E15A89B200292DD022689368DB07EDD575
:1026A000236C127B1A70236C013323644622A35AD5
:1026B000013B9BB2A352EAE7FFF786F9C01BA84291
:1026C00001D36B1C34D1002D34D04623E15A89B29A
:1026D00000290FD022689368DB07EDD5D268236C00
:1026E0001A80236C023323644622A35A013B9BB217
:1026F000A352EAE73A0029002000FFF781FC0028F6
:1027000001D020232366236E002B02D1002600E097
:1027100002265D230122E254013B0022E2543000F4
:1027200004B080BCB846F0BD0326F2E70326F0E70C
:102730000326EEE70326ECE70226F0E7FFEFFFFFB4
:10274000FFBFFFFF5D23C05CC0B2704710B504003F
:1027500083680269134342691343C26913430168E2
:102760000A684948024013430B602268536847498E
:102770000B40E1680B435360A369226A1A43216846
:102780008B684348034013438B60424B1A6B03230F
:102790001340022B26D021D8002B25D0012B25D188
:1027A0000333E06980221202904223D0042B63D0CD
:1027B00052D8002B5AD0022B4CD1374861684B08B5
:1027C0001818FDF78FFC0004000C0200103A334B80
:1027D0009A4256D82368D860002043E0032B07D1E3
:1027E000013BDEE70823DCE70023DAE71023D8E724
:1027F0001023D6E7042B2AD01FD8002B21D0022B80
:1028000019D12548400061684B08C018FDF76AFCE3
:1028100083B20004000C01001039204A91422ED8E6
:102820000F2293431A0040080723034013432268F2
:10283000D360002016E0012014E0082BE2D0012034
:1028400010E0FEF7DDFF0028DCD100200AE0FEF7F3
:10285000F9FEF8E7012005E0082B02D180200002F4
:10286000ACE7012000236366A36610BDFEF7C8FF36
:102870000028A3D10020F5E7FEF7E4FEF8E70120E9
:10288000F0E70120EEE7C046F369FFFFFFCFFFFF4F
:10289000FFF4FFFF0010024000127A00EFFF00007B
:1028A000436ADB0706D5026853682C490B40816AEE
:1028B0000B435360436A9B0706D502685368284957
:1028C0000B40C16A0B435360436A5B0706D502683D
:1028D000536824490B40016B0B435360436A1B0749
:1028E00006D50268536820490B40416B0B43536087
:1028F000436ADB0606D5026893681C490B40816B6E
:102900000B439360436A9B0606D502689368184997
:102910000B40C16B0B439360436A5B060BD50268A7
:10292000536814490B40016C0B435360026C8023C5
:102930005B039A420AD0436A1B0606D502685368B5
:102940000D490B40816C0B4353607047026853681C
:102950000A490B40416C0B435360ECE7FFFFFDFF5E
:10296000FFFFFEFFFFFFFBFFFF7FFFFFFFEFFFFF0C
:10297000FFDFFFFFFFFFEFFFFFFFF7FFFFFF9FFFFF
:10298000F8B5CE46474680B506000D0017009946BB
:10299000089B98463368DC692C40641B63425C41A9
:1029A000BC4253D143460133F4D0FFF70DF84B46F8
:1029B000C01A40452CD84346002B29D032681368F2
:1029C0005B07E7D5D3691B05E4D580231B011362A0
:1029D000EFF31080012282F3108831680B681E4CDF
:1029E00023400B6080F31088EFF3108082F310888F
:1029F00031688B6893438B6080F310882023B36722
:102A0000F3677F32B35054330022F25403201EE0A8
:102A1000EFF31080012282F3108831680B680E4CAE
:102A200023400B6080F31088EFF3108082F310884E
:102A300031688B6893438B6080F310882023B367E1
:102A4000F36754330022F254032000E00020C0BC9E
:102A5000B946B046F8BDC0465FFEFFFFF0B5C646BA
:102A600000B582B004000D0090461E00836F202B3D
:102A700066D1002969D0002A69D0826880235B0171
:102A80009A421ED07423E35C012B62D0742301228E
:102A9000E2540C330022E2505F3BA367FEF794FF41
:102AA000070050234246E2520233E252A2688023DA
:102AB0005B019A420CD00023984674230022E25412
:102AC0001DE00369002BDDD1CB07DBD5012038E009
:102AD0002369002B02D000239846EEE7A846002584
:102AE000EBE743461B882268DB05DB0D13850223D9
:102AF0009C46E0445223E25A013A92B2E2525223F7
:102B0000E35A9BB2002B0FD000963B00002280219D
:102B10002000FFF735FF00281DD1002DE1D02368EC
:102B20002A781A850135E5E700963B00002240210E
:102B30002000FFF725FF00280FD12023A36700E026
:102B4000022002B080BCB846F0BD0120F9E70120A8
:102B5000F7E70220F5E70320F3E70320F1E70000A1
:102B600030B583B0040080230022C250FEF72CFF52
:102B7000050023681B681B070DD423681B685B07CF
:102B800016D42023A367E367002323667422A3548B
:102B9000002003B030BD80210C4B009303000022C5
:102BA00089032000FFF7ECFE0028E6D00320F0E7C1
:102BB0008021064B00932B000022C9032000FFF761
:102BC000DFFE0028DDD00320E3E7C046FFFFFF0162
:102BD00010B5041E2ED0836F002B21D02423A367B1
:102BE0002268136801218B4313602000FFF7AEFDBC
:102BF000012814D0636A002B18D1226853680E494B
:102C00000B4053602268936808218B4393602268CD
:102C1000136807390B4313602000FFF7A1FF10BDB5
:102C200074330022C254FEF739F9D7E72000FFF7CA
:102C300037FEE2E70120F2E7FFF7FFFF70470000F1
:102C40000D4885460D480E490E4A002302E0D4582F
:102C5000C4500433C4188C42F9D30B4A0B4C0023E4
:102C600001E013600432A242FBD3FFF7E7FF00F05C
:102C700039F8FDF753FDFEE70010002000000020AA
:102C80005C000020803600085C00002080030020EB
:102C9000FEE700000EB400B50B499CB01DAB0290DE
:102CA0000690079104910948094904CB05910068F1
:102CB00002A9019300F094F90022029B1A701CB043
:102CC00008BC03B01847C046FFFFFF7F5800002034
:102CD0000802FFFF03008218934200D17047197069
:102CE0000133F9E770B500260C4C0D4D641BA410A0
:102CF000A64209D1002600F073FC0A4C0A4D641B61
:102D0000A410A64205D170BDB300EB589847013618
:102D1000EEE7B300EB5898470136F2E77836000843
:102D2000783600087C36000878360008704770470F
:102D300070B50500002910D00C1F2368002B00DAA5
:102D4000E418280000F0DAF81D4A1368002B05D1BA
:102D500063601460280000F0D9F870BDA34208D960
:102D6000206821188B42F3D119685B68091821602B
:102D7000EEE71A005B68002B01D0A342F9D9116875
:102D80005018A0420BD120680918501811608342D6
:102D9000E0D118685B68411811605360DAE7A0421F
:102DA00002D90C232B60D5E7206821188B4203D170
:102DB00019685B680918216063605460CAE7C046FF
:102DC0007403002070B50F4E0D0031680400002917
:102DD00002D100F099FB30602900200000F094FB44
:102DE000431C0AD00323C51C9D43A84207D0291ABF
:102DF000200000F089FB013001D101256D4228003F
:102E000070BDC04678030020F7B50322CB1C934366
:102E1000083306001F000C2B34D20C27B94233D8DC
:102E2000300000F06BF8344D2B681C00002C30D1C2
:102E300039003000FFF7C6FF0400431C59D12C684D
:102E40002500002D4CD1002C4DD023682900E3181B
:102E50003000019300F058FB019B834243D123686B
:102E60000337FF1A03239F4308370C2F00D20C2788
:102E700039003000FFF7A6FF013034D02368DB199A
:102E8000236013E0002BC9DA0C23002533602800EF
:102E9000FEBD2168C91B20D40B2917D9E219276070
:102EA000A34211D12A60636811605360300025008D
:102EB00000F02CF807220B35231D9543EA1A9D429A
:102EC000E5D05B1BA350E2E75A60ECE76268A342DF
:102ED00001D12A60EAE75A60E8E723006468A5E7C1
:102EE0002C006D68ADE70C233000336000F00EF865
:102EF000CDE72760DAE7C0467403002010B502482A
:102F0000FFF714FF10BDC0467003002010B5024843
:102F1000FFF70DFF10BDC04670030020F0B585B06F
:102F2000019303928E68019A07000C000B68964289
:102F300031D88A899021C9000A4229D00320216909
:102F40005B1A029363694343DD0FED18019B0298FE
:102F500001331B186D10AB4200D91D00520529D555
:102F600029003800FFF750FF061E2DD0029A216974
:102F700000F0E7FAA289194B1A4080231343A3817A
:102F8000029B2661F61826606561019EED1AA56018
:102F9000019B9E4200D9019E32000399206800F0F7
:102FA0009FFA0020A3689B1BA36023689B192360E2
:102FB00005B0F0BD2A00380000F0CCFA061EDFD1C3
:102FC00038002169FFF7B4FE0C2301203B60A28981
:102FD00034331343A3814042EAE7C0467FFBFFFF3F
:102FE000F0B5A1B003901D008B890F0016001B06E1
:102FF00011D50B69002B0ED14021FFF705FF38607A
:103000003861002805D10C23039A0138136021B0E0
:10301000F0BD40237B61002308AC636120336376FD
:103020001033A376079535002B78002B01D0252B84
:1030300048D1AB1B0593B5420BD032003900039841
:10304000FFF76CFF013000D1AFE06369059A9B1870
:1030500063612B78002B00D1A7E0012200235242AC
:10306000626004A9543252186E1C2360E360A360AE
:103070001370A365554B052218003178059300F0B5
:1030800055FA751C00281FD12268D30604D5532396
:1030900004A95B1820211970130704D5532304A930
:1030A0005B182B21197033782A2B16D0350000219C
:1030B0000A20E3682A786E1C303A092A4ED9002982
:1030C00011D117E00135AFE7059B2268C01A012333
:1030D000834013432E002360CCE7079B191D1B6818
:1030E0000791002B01DB0B9304E05B42E3600223BA
:1030F000134323602B782E2B0AD16B782A2B35D1E2
:10310000079B02351A1D1B680792002B2BDB0993C6
:103110002F4E03223000297800F008FA002806D04C
:103120004023801B834022680135134323602978A4
:10313000062228486E1C217600F0F8F900283CD0C1
:10314000254B002B25D10722079B073393430833D8
:1031500007936369049A9B18636164E743433500EE
:1031600001219B18A6E701235B42D0E700230A2038
:103170001A000135636029786E1C3039092903D99A
:10318000002BC5D00992C3E74243350001235218F2
:10319000F1E707AA009221003A00104B039800E0E3
:1031A00000BF0490049B0133D3D1BB890D985B060B
:1031B00000D42CE70120404229E707AA0092210011
:1031C0003A00064B039800F07BF8EAE74436000823
:1031D0004A3600084E360008000000001D2F000887
:1031E000F7B5160001938A680B690C0000909342B2
:1031F00000DA13002200336043321278002A01D033
:103200000133336023689B0602D533680233336091
:103210002268062315001D401A4227D0230043339D
:103220001B785A1E93412268920630D422000199DD
:103230000098089D4332A847013025D00622236814
:1032400000251340042B05D13368E568ED1AEB43E4
:10325000DB171D40A3682269934201DD9B1AED181C
:103260000026B54220D1002010E00135E368326825
:103270009B1AAB42D2DD2200012301990098089FDE
:103280001932B8470130F0D101204042FEBD302054
:10329000E1184331087021005A1C45310978A21801
:1032A000433202331170C1E72200012301990098D3
:1032B000089F1A32B8470130E6D00136D1E7000046
:1032C000F0B58BB006920A00433207930590049242
:1032D0000A7E0C00109B782A09D8622A0BD8002A93
:1032E00000D1BEE07C490391582A00D193E026002A
:1032F0004236327022E0100063381528F7D8FCF708
:10330000E7FE16001F00F6FFF6FFF6FFF6FF1F00B0
:10331000F6FFF6FFF6FFF6FFA30036008300F6FF88
:10332000F6FFB400F6FF3600F6FFF6FF8700260032
:103330001A684236111D1960136833700123A2E028
:1033400018680968021D0D060BD505681A60002D66
:1033500003DA2D23049A6D4213705F4B0A270393FF
:103360001BE005681A604906F1D52DB2EFE70D683C
:103370001968081D18602E0601D50D6803E06D065A
:10338000FBD50D68ADB2544B082703936F2A00D0CC
:1033900002372300002243331A706368A360002BB6
:1033A00003DB042122688A432260002D02D1049E9F
:1033B000002B0CD0049E28003900FCF719FF039B5A
:1033C000013E5B5C33702B0005009F42F3D9082F50
:1033D00009D12368DB0706D5626823699A4202DCBB
:1033E0003023013E3370049B9B1B2361079B21000C
:1033F00000930598069B09AAFFF7F2FE013047D11A
:10340000012040420BB0F0BD202209680A4322602F
:10341000782232490391210045310A7019682268E7
:1034200020C9100602D4500600D5ADB21960D307EA
:1034300002D52023134323601027002DA9D1202279
:10344000236893432360A4E71A680D68101D496937
:10345000186013682E0601D5196002E06D06FBD5D1
:1034600019800023049E2361C0E71A68111D1960AA
:10347000166800213000626800F058F8002801D07A
:10348000801B6060636823610023049A1370ADE7BA
:103490003200236906990598079DA8470130AFD0EF
:1034A00023689B0715D4099BE0689842AADA1800A4
:1034B000A8E72200012306990598079E1932B04714
:1034C00001309DD00135E368099A9B1AAB42F0DCCC
:1034D000E9E70025F7E7C0465536000866360008DC
:1034E00010B5884202D98B18984203D3002307E015
:1034F0008B5C8354013AFBD210BDCC5CC4540133C5
:103500009A42FAD1F8E70000002370B5064D040096
:1035100008002B6000F056F8431C03D12B68002BE9
:1035200000D0236070BDC0466C030020C9B2821871
:10353000904201D10020704703788B42FBD00130CC
:10354000F6E7002310B59A4200D110BDCC5CC454FC
:103550000133F8E7F7B507000E001400002905D184
:103560001100FFF751FC05002800FEBD002A03D121
:10357000FFF7DEFB2500F7E700F01BF8019084421F
:1035800003D835004308A342EED321003800FFF7EB
:103590003BFC051EE8D0019B22009C4200D91A008A
:1035A00031002800FFF7CDFF31003800FFF7C0FBE6
:1035B000DAE70B1F1B68181F002B01DA0B58C01825
:1035C00070470000044A03001068002802D0C318A6
:1035D000136070470148FAE77C0300208003002055
:1035E000F8B5C046F8BC08BC9E467047F8B5C04662
:0835F000F8BC08BC9E467047C0
:1035F80053656E743A2025640A000000020304052E
:10360800060708090A0B0C0D0E0F10100000000029
:103618000102030405060708090A0B0C0D0E0F101A
:103628000000000000000000000000000102030488
:10363800060708090000000001020304232D302BAF
:103648002000686C4C00656667454647003031329B
:1036580033343536373839414243444546003031F2
:103668003233343536373839616263646566000051
:0436780045040008FD
:04367C001904000825
:10368000010000000400000000127A0000000000A9
:10369000340200209C0200200403002000000000EF
:1036A000000000000000000000000000000000001A
:1036B000000000000000000000000000000000000A
:1036C00000000000000000000000000000000000FA
:0C36D00000000000000000000C000020C2
:0400000508002C4182
:00000001FF
